:020000020000FC
:0200000045C0F9
:020004005CC0DE
:020008005FC0D7
:10008C000FEF0DBF00E10EBF00E001BB0FEF02BB95
:10009C0002B90093610003E009BF0AE000936A0013
:1000AC00789420E0422F0FD018D023B9209362000F
:1000BC00FFCF2395422F07D010D018952A95422FA9
:1000CC0002D00BD0189560E04A301AF063954A5074
:1000DC00FBCF6295642B562F08955F935F7007D00A
:1000EC00009262005F9152955F7001D003B8F1E00D
:1000FC00E4E0E50F04900895C0F9A4B0999282F859
:08010C008090FFFFFFFFFFFFE1
:00000001FF
